:100000000C9434000C9446000C9446000C9446006A
:100010000C9446000C9446000C9446000C94460048
:100020000C9446000C9446000C9446000C94460038
:100030000C9446000C9446000C9446000C94460028
:100040000C9448000C9446000C9446000C94460016
:100050000C9446000C9446000C9446000C94460008
:100060000C9446000C94460011241FBECFEFD8E03C
:10007000DEBFCDBF24E0A0E0B1E001C01D92A132FF
:10008000B207E1F70E94EB000C94FB000C94000017
:100090001F920F920FB60F9211248F939F939091FE
:1000A000000181E0911180E0809300019F918F9188
:1000B0000F900FBE0F901F9018951092C50089E108
:1000C0008093C40082E08093C00088E18093C100E7
:1000D00086E08093C200089516BC14BC81E0809332
:1000E0006E0084E085BD08959091C00095FFFCCF1F
:1000F0008093C6000895CF93DF93EC01899181111D
:1001000003C0DF91CF9108950E947400F7CF9C0146
:1001100090E040E2D901A850BD4F5EE567E5F901E6
:1001200080E0923068F4853098F460838F5F319678
:100130008832B9F79F5F285D3F4F943181F708956A
:10014000933131F4843121F454965C935497EECF7B
:100150004083ECCFEF92FF920F931F93CF93DF93E7
:100160008C01CAE283E20E947400CA95D9F78DE03F
:100170000E9474008AE00E947400E801005E1C4F37
:1001800083E20E9474007E0188E2E80EF11C8991EE
:100190000E947400CE15DF05D1F783E20E9474003F
:1001A0008DE00E9474008AE00E9474000C171D0705
:1001B00039F7CAE283E20E947400CA95D9F78DE04C
:1001C0000E9474008AE0DF91CF911F910F91FF9000
:1001D000EF900C9474000E945D0081E091E00E9419
:1001E000870081E091E00E94AA000E946C00789450
:0A01F00080E090E00895F894FFCF3E
:00000001FF
