:100000000C9434000C9451000C9451000C94510049
:100010000C9451000C9451000C9451000C9451001C
:100020000C9451000C9451000C9451000C9451000C
:100030000C9451000C9451000C9451000C945100FC
:100040000C942B020C9451000C9441020C9451001E
:100050000C9451000C9451000C9451000C945100DC
:100060000C9451000C94510011241FBECFEFD8E026
:10007000DEBFCDBF11E0A0E0B1E0E2EEFAE002C0E9
:1000800005900D92AC33B107D9F721E0ACE3B1E0B4
:1000900001C01D92A137B207E1F70E9451020C94F2
:1000A0006F050C9400001092C50089E18093C40094
:1000B00082E08093C00088E98093C10086E080934D
:1000C000C200089516BC14BC81E080936E0084E0E9
:1000D00085BD08959091C00095FFFCCF8093C60028
:1000E00008950E946A0080E090E00895CF93DF9326
:1000F000EC018991811103C0DF91CF9108950E9495
:100100006A00F7CFECE3F1E0DF0180E01C9211968A
:100110008C9311978F5F12968A30C1F780E091E03F
:10012000948B858B8F5F32968A30D1F70895BF927A
:10013000CF92DF92EF92FF920F931F93CF93DF93B3
:10014000B82ED62FC72F70E080916401482F50E061
:10015000E62FE81BFF0B9F01CC2ED12C809165016F
:10016000E82EF12CEC2FE81BFF0B8F0137FF38C076
:10017000461B570B5F934F9381E191E09F938F93C1
:100180000E948C020F900F900F900F9017FF30C0BD
:10019000EC18FD08FF92EF928DE191E09F938F9311
:1001A0000E948C020F900F900F900F901F92BF92A1
:1001B00089E291E09F938F930E948C02D093640117
:1001C000C09365010F900F900F900F90DF91CF912A
:1001D0001F910F91FF90EF90DF90CF90BF90089507
:1001E0002115310599F23F932F9387E191E0C6CF16
:1001F00001151105D9F21F930F9383E291E0CECF41
:100200000F931F93CF93DF9380916A018F5F809349
:100210006A0100913C01D0913D01D15010915001F3
:10022000C0915101C15060914E0170914F0180E227
:100230000E949700602F7D2F87E50E9497006091B4
:1002400062017091630180E20E949700612F7C2F10
:1002500087E50E949700ECE3F1E081818150818382
:10026000329681E0E436F807C1F7DF91CF911F9114
:100270000F9108950F931F93CF93DF9380916A019D
:100280008F5F80936A0100914E01D0914F01DF5F33
:1002900010916201C0916301CF5F60913C01709148
:1002A0003D0180E20E949700602F7D2F87E50E942C
:1002B0009700609150017091510180E20E94970077
:1002C000612F7C2F87E50E949700ECE3F1E08181AC
:1002D0008F5F8183329681E0E436F807C1F7DF91C2
:1002E000CF911F910F910895809166018130C1F0E7
:1002F00081E08093660180916A01823348F08091A9
:10030000100110926A018C3661F482E7809310012B
:10031000809110018C3639F40E9400011092660120
:1003200008958CE6F3CF8237C9F70E943A01F6CFE1
:10033000CF93DF9380916601813059F181E0809302
:10034000660180916901813639F5C0910F01C115AF
:10035000F1F0D0910E01C1506D2F7C2F8EE50E94DF
:10036000970060910E0170910F0180E20E9497004A
:1003700080910E0190910F0190936501809364012B
:10038000D0930E01C0930F0180E280936901109217
:100390006601DF91CF9108958436C9F7C0910F01AE
:1003A000CB33A8F7D0910E01CF5FD6CFCF93DF9399
:1003B000CEE383E20E946A00CA95D9F781E391E017
:1003C0000E94760083E20E946A0080E0D1E0D80FAC
:1003D000C23038F48A3028F487E50E946A008D2FF5
:1003E000F5CF90910E019C1334C090910F0198139A
:1003F00030C08EE50E946A008D2FDC3339F780E330
:1004000091E00E947600CF5FCE31E1F6CEE383E249
:100410000E946A00CA95D9F71F928EE18F9381E1FD
:1004200091E09F938F930E948C021F928DE38F9394
:100430008DE191E09F938F930E948C028DB79EB7C0
:1004400008960FB6F8949EBF0FBE8DBFDF91CF9177
:10045000089580E2CFCF1F920F920FB60F92112412
:100460008F93809168018F5F80936801809167010D
:100470008F5F809367018F910F900FBE0F901F9039
:1004800018951F920F920FB60F9211248F9380919F
:10049000C600809369018F910F900FBE0F901F903F
:1004A00018950E94530080E091E090936E01809334
:1004B0006D0184E391E09F938F930E948C02CBE2C5
:1004C000D1E0DF93CF930E948C0280E290E00E9403
:1004D000A202DF93CF930E948C020E9482000E94AE
:1004E000D6010E94620078940F900F900F900F90A9
:1004F0000F900F9080916801823028F0109268016F
:100500000E949801F7CF80916701863098F310928E
:1005100067010E947401EECFA0E0B0E0E2E9F2E0F2
:100520000C944805AE014B5F5F4FFA0161917191E8
:10053000AF0180916D0190916E010E94A902E2E0ED
:100540000C94640560916D0170916E010E94AA0483
:100550000895ABE0B0E0EFEAF2E00C943B056C01EB
:100560007B018A01FC0117821682838181FFD9C138
:100570009AE0592EF6012381F70123FD859123FF8F
:1005800081917F01811509F41FC1853239F423FD62
:10059000959123FF91917F01953229F4B60190E066
:1005A0000E94AA04E7CF30E0912C612C712CF0E27C
:1005B0007F1640F59B32D9F058F49032D1F0933247
:1005C000F1F09E3299F576FCFFC0689476F806C08B
:1005D0009D3291F09033C1F4689470F8F70123FDD7
:1005E000959123FF91917F019111E1CF29C06894EA
:1005F00071F8689472F8F2CF689473F8EFCF68944A
:1006000074F8ECCF77FC1CC080ED890F8A30C8F6F7
:1006100076FE05C0959C800D1124982EDFCF659C39
:10062000800D1124682E689475F8D8CF9C3619F483
:10063000689477F8D3CF9C3409F44BC0983671F2A4
:10064000892F8F7D8554833008F445C0933609F493
:1006500066C0933709F469C0933509F475C09436C0
:1006600019F0993609F09FC0F80177FE95C06191A5
:100670007191819191918F01272D2F76822E97FF75
:1006800009C090958095709561957F4F8F4F9F4FD2
:10069000689487F82AE030E0AE014F5F5F4F5A015F
:1006A0000E94DA048A19A82E86FEC4C0882D8E7F87
:1006B000A91408F0BEC084FE11C182FC05C1F82D4A
:1006C000FE7E8F2EB92C882D8678811509F4BFC047
:1006D00000C131E083CF3115F9F0085F1F4F8FE380
:1006E000898388248394912CAE014F5F5F4F5A0118
:1006F000E89477F873FC03C086149104B0F1811478
:100700009104D1F5611409F435CFB60180E290E08F
:100710000E94AA046A94F6CF0C5F1F4FE0CFF80145
:10072000808189830E5F1F4FDCCFF801A190B190CB
:100730008F01692D70E076FC02C06FEF7FEFC5017D
:100740000E949F044C01D4CFF801A190B1908F0179
:10075000692D70E076FC02C06FEF7FEFC5010E944B
:1007600094044C01689477F8C5CFB60180E290E01C
:100770000E94AA046A94C0CFF50177FC859177FEA8
:1007800081915F01B60190E00E94AA0461106A9411
:10079000F1E08F1A9108B3CF61917191072E000C8F
:1007A000880B990B68CF872CE89484F82AE030E016
:1007B000953739F1572D597F852E903799F058F498
:1007C0009835A9F09F36D9F0F601868197812B964E
:1007D000EFE00C9457059837B9F774FC05C020E199
:1007E00030E00FC0689484F8689482F8F8CF74FE03
:1007F00003C0872D8660882E20E132E002C028E009
:1008000030E0F80187FE10C0619171918191919162
:100810008F01FE0131965F01AF010E94DA048A194F
:10082000A82EE89487F840CF6191719180E090E024
:10083000EFCF882EBA2C84FE46CFFE01EA0DF11DC3
:100840008081803309F043C0282D297E822E83FCCD
:100850000EC080FE4FC09A2CB61418F4960C9B184C
:10086000B62C862D8B196B1408F480E0B80EB614E4
:1008700008F042C06B1884FE41C0B60180E390E0EE
:100880000E94AA0482FE09C088E590E081FC02C0B3
:1008900088E790E0B6010E94AA04A914D8F1AA94AE
:1008A000B12C4FEFA41AB40ACE0101964C01A80E48
:1008B000B91EF50182915F01B60190E00E94AA0481
:1008C0008A149B04B1F71ECFB92C882EB6CF82FCB8
:1008D00002C0B394BCCFB394B394B9CFB92C882ED3
:1008E000F2CEB60180E290E00E94AA0473947614DE
:1008F000C0F3B7CF7B2CFBCF612CBDCF882D867882
:10090000811559F280E281FC8BE287FC8DE2B60111
:1009100090E0C1CFB60180E390E00E94AA049A94CF
:10092000BCCF8FEF9FEF53CFFC010590615070401B
:100930000110D8F7809590958E0F9F1F0895FC01A8
:100940006150704001900110D8F7809590958E0FFE
:100950009F1F08950F931F93CF93DF93182F092F95
:10096000EB018B8181FD09C01FEF0FEF812F902FCD
:10097000DF91CF911F910F91089582FF14C02E81B6
:100980003F818C819D81281739073CF4E881F981EA
:10099000CF0101969983888310838E819F81019670
:1009A0009F838E83E3CFE885F985812F0995892B75
:1009B000A1F3DACFFA01AA27283051F1203181F1D1
:1009C000E8946F936E7F6E5F7F4F8F4F9F4FAF4F57
:1009D000B1E03ED0B4E03CD0670F781F891F9A1F6A
:1009E000A11D680F791F8A1F911DA11D6A0F711D1E
:1009F000811D911DA11D20D009F468943F912AE02A
:100A0000269F11243019305D3193DEF6CF01089511
:100A1000462F4770405D4193B3E00FD0C9F7F6CF42
:100A2000462F4F70405D4A3318F0495D31FD40520A
:100A3000419302D0A9F7EACFB4E0A69597958795A0
:100A400077956795BA95C9F700976105710508957F
:100A50009B01AC010A2E069457954795379527952B
:100A6000BA95C9F7620F731F841F951FA01D0895C3
:100A70002F923F924F925F926F927F928F929F92AE
:100A8000AF92BF92CF92DF92EF92FF920F931F939C
:100A9000CF93DF93CDB7DEB7CA1BDB0B0FB6F8944D
:100AA000DEBF0FBECDBF09942A88398848885F848D
:100AB0006E847D848C849B84AA84B984C884DF80FE
:100AC000EE80FD800C811B81AA81B981CE0FD11DE2
:100AD0000FB6F894DEBF0FBECDBFED010895F894B8
:020AE000FFCF46
:100AE20000000002000000007100000000001D1E56
:100AF200721B5B256441001B5B256442001B5B2566
:100B02006444001B5B2564430025631B5B31440086
:0C0B1200230D0A001B5B3F32356C000015
:00000001FF
