:100000000C9434000C9451000C9451000C94510049
:100010000C9451000C9451000C9451000C9451001C
:100020000C9451000C9451000C9451000C9451000C
:100030000C9451000C9451000C9451000C945100FC
:100040000C946C020C9451000C9482020C9451009C
:100050000C9451000C9451000C9451000C945100DC
:100060000C9451000C94510011241FBECFEFD8E026
:10007000DEBFCDBF11E0A0E0B1E0E4E6FBE002C0EE
:1000800005900D92AC33B107D9F721E0ACE3B1E0B4
:1000900001C01D92AA36B207E1F70E9492020C94A9
:1000A000B0050C9400001092C50089E18093C40053
:1000B00082E08093C00088E98093C10086E080934D
:1000C000C200089516BC14BC81E080936E0084E0E9
:1000D00085BD08959091C00095FFFCCF8093C60028
:1000E00008950E946A0080E090E00895CF93DF9326
:1000F000EC018991811103C0DF91CF9108950E9495
:100100006A00F7CFECE3F1E0DF0180E01C9211968A
:100110008C9311978F5F12968830C1F780E091E041
:10012000908B818B8F5F32968830D1F70895BF9284
:10013000CF92DF92EF92FF920F931F93CF93DF93B3
:10014000B82ED62FC72F70E080915C01482F50E069
:10015000E62FE81BFF0B9F01CC2ED12C80915D0177
:10016000E82EF12CEC2FE81BFF0B8F0137FF38C076
:10017000461B570B5F934F9381E191E09F938F93C1
:100180000E94CD020F900F900F900F9017FF30C07C
:10019000EC18FD08FF92EF928DE191E09F938F9311
:1001A0000E94CD020F900F900F900F901F92BF9260
:1001B00089E291E09F938F930E94CD02D0935C01DE
:1001C000C0935D010F900F900F900F90DF91CF9132
:1001D0001F910F91FF90EF90DF90CF90BF90089507
:1001E0002115310599F23F932F9387E191E0C6CF16
:1001F00001151105D9F21F930F9383E291E0CECF41
:100200000F931F93CF93DF93809163018F5F809350
:10021000630100913C01D0913D01D15010914C01FE
:10022000C0914D01C15060914A0170914B0180E233
:100230000E949700602F7D2F87E50E9497006091B4
:100240005A0170915B0180E20E949700612F7C2F20
:1002500087E50E949700ECE3F1E081818150818382
:10026000329681E0EC35F807C1F7DF91CF911F910D
:100270000F9108950F931F93CF93DF9380916301A4
:100280008F5F8093630100914A01D0914B01DF5F42
:1002900010915A01C0915B01CF5F60913C01709158
:1002A0003D0180E20E949700602F7D2F87E50E942C
:1002B000970060914C0170914D0180E20E9497007F
:1002C000612F7C2F87E50E949700ECE3F1E08181AC
:1002D0008F5F8183329681E0EC35F807C1F7DF91BB
:1002E000CF911F910F910895EF92FF920F931F935B
:1002F000CF93DF93CCE3D1E07E0100E010E0F80182
:10030000EE0FFF1FE45CFE4F6081718180E20E946E
:100310009700F701718160816E5F87E50E94970009
:100320000F5F1F4FF2E0EF0EF11C0830110539F797
:1003300088818F5F8883229681E0CC35D807C1F70A
:10034000DF91CF911F910F91FF90EF9008958091D1
:100350005E018130F9F081E080935E01809162015D
:100360008330C8F0109262010E9474018091630191
:10037000803270F010926301809110018C36B9F4D4
:1003800082E780931001809162018F5F8093620108
:1003900010925E010895809110018C3619F40E942C
:1003A0000001E4CF823711F70E943A01DFCF8CE6DB
:1003B000E8CFCF93DF9380915E01813059F181E0E6
:1003C00080935E0180916101813639F5C0910F0102
:1003D000C115F1F0D0910E01C1506D2F7C2F8EE52B
:1003E0000E94970060910E0170910F0180E20E94BF
:1003F000970080910E0190910F0190935D01809381
:100400005C01D0930E01C0930F0180E280936101E3
:1004100010925E01DF91CF9108958436C9F7C091A3
:100420000F01C732A8F7D0910E01CF5FD6CFCF937F
:10043000DF93CAE283E20E946A00CA95D9F781E39A
:1004400091E00E94760083E20E946A0080E0D1E0A1
:10045000D80FC23038F4883028F487E50E946A004B
:100460008D2FF5CF90910E019C1334C090910F0108
:10047000981330C08EE50E946A008D2FD83239F76C
:1004800080E391E00E947600CF5FC431E1F6CAE2DA
:1004900083E20E946A00CA95D9F71F9284E18F9384
:1004A00081E191E09F938F930E94CD021F9289E298
:1004B0008F938DE191E09F938F930E94CD028DB732
:1004C0009EB708960FB6F8949EBF0FBE8DBFDF9102
:1004D000CF91089580E2CFCF1F920F920FB60F9267
:1004E00011248F93809160018F5F809360018091D0
:1004F0005F018F5F80935F018F910F900FBE0F9010
:100500001F9018951F920F920FB60F9211248F9380
:100510008091C600809361018F910F900FBE0F9064
:100520001F9018950E94530080E091E0909367011E
:100530008093660184E391E09F938F930E94CD02A4
:10054000CBE2D1E0DF93CF930E94CD0280E290E036
:100550000E94E302DF93CF930E94CD020E948200AB
:100560000E9417020E94620078940F900F900F90E3
:100570000F900F900F9080916001823028F01092C0
:1005800060010E94D901F7CF80915F01863098F316
:1005900010925F010E94A701EECFA0E0B0E0E3ED72
:1005A000F2E00C948905AE014B5F5F4FFA01619157
:1005B0007191AF0180916601909167010E94EA02FA
:1005C000E2E00C94A50560916601709167010E94BC
:1005D000EB040895ABE0B0E0E0EFF2E00C947C05B2
:1005E0006C017B018A01FC0117821682838181FFE5
:1005F000D9C19AE0592EF6012381F70123FD859197
:1006000023FF81917F01811509F41FC1853239F4DF
:1006100023FD959123FF91917F01953229F4B60135
:1006200090E00E94EB04E7CF30E0912C612C712C1C
:10063000F0E27F1640F59B32D9F058F49032D1F0B9
:100640009332F1F09E3299F576FCFFC0689476F80B
:1006500006C09D3291F09033C1F4689470F8F701B0
:1006600023FD959123FF91917F019111E1CF29C045
:10067000689471F8689472F8F2CF689473F8EFCFC9
:10068000689474F8ECCF77FC1CC080ED890F8A3039
:10069000C8F676FE05C0959C800D1124982EDFCFFC
:1006A000659C800D1124682E689475F8D8CF9C360F
:1006B00019F4689477F8D3CF9C3409F44BC098367A
:1006C00071F2892F8F7D8554833008F445C09336AD
:1006D00009F466C0933709F469C0933509F475C00D
:1006E000943619F0993609F09FC0F80177FE95C04D
:1006F00061917191819191918F01272D2F76822E99
:1007000097FF09C090958095709561957F4F8F4FA9
:100710009F4F689487F82AE030E0AE014F5F5F4F4B
:100720005A010E941B058A19A82E86FEC4C0882D76
:100730008E7FA91408F0BEC084FE11C182FC05C1E1
:10074000F82DFE7E8F2EB92C882D8678811509F420
:10075000BFC000C131E083CF3115F9F0085F1F4FF2
:100760008FE3898388248394912CAE014F5F5F4F80
:100770005A01E89477F873FC03C086149104B0F131
:1007800081149104D1F5611409F435CFB60180E2EA
:1007900090E00E94EB046A94F6CF0C5F1F4FE0CF0D
:1007A000F801808189830E5F1F4FDCCFF801A19093
:1007B000B1908F01692D70E076FC02C06FEF7FEF82
:1007C000C5010E94E0044C01D4CFF801A190B19082
:1007D0008F01692D70E076FC02C06FEF7FEFC501DD
:1007E0000E94D5044C01689477F8C5CFB60180E229
:1007F00090E00E94EB046A94C0CFF50177FC8591EC
:1008000077FE81915F01B60190E00E94EB046110D8
:100810006A94F1E08F1A9108B3CF61917191072E1C
:10082000000C880B990B68CF872CE89484F82AE099
:1008300030E0953739F1572D597F852E903799F053
:1008400058F49835A9F09F36D9F0F6018681978142
:100850002B96EFE00C9498059837B9F774FC05C017
:1008600020E130E00FC0689484F8689482F8F8CFF3
:1008700074FE03C0872D8660882E20E132E002C01E
:1008800028E030E0F80187FE10C0619171918191FC
:1008900091918F01FE0131965F01AF010E941B050E
:1008A0008A19A82EE89487F840CF6191719180E071
:1008B00090E0EFCF882EBA2C84FE46CFFE01EA0DE1
:1008C000F11D8081803309F043C0282D297E822EBE
:1008D00083FC0EC080FE4FC09A2CB61418F4960C00
:1008E0009B18B62C862D8B196B1408F480E0B80E7B
:1008F000B61408F042C06B1884FE41C0B60180E314
:1009000090E00E94EB0482FE09C088E590E081FC43
:1009100002C088E790E0B6010E94EB04A914D8F168
:10092000AA94B12C4FEFA41AB40ACE0101964C013F
:10093000A80EB91EF50182915F01B60190E00E94F8
:10094000EB048A149B04B1F71ECFB92C882EB6CFC6
:1009500082FC02C0B394BCCFB394B394B9CFB92C8A
:10096000882EF2CEB60180E290E00E94EB047394F0
:100970007614C0F3B7CF7B2CFBCF612CBDCF882D75
:100980008678811559F280E281FC8BE287FC8DE24A
:10099000B60190E0C1CFB60180E390E00E94EB0485
:1009A0009A94BCCF8FEF9FEF53CFFC01059061501D
:1009B00070400110D8F7809590958E0F9F1F089575
:1009C000FC016150704001900110D8F7809590951E
:1009D0008E0F9F1F08950F931F93CF93DF93182FB0
:1009E000092FEB018B8181FD09C01FEF0FEF812FD4
:1009F000902FDF91CF911F910F91089582FF14C026
:100A00002E813F818C819D81281739073CF4E88134
:100A1000F981CF0101969983888310838E819F810C
:100A200001969F838E83E3CFE885F985812F099511
:100A3000892BA1F3DACFFA01AA27283051F120310E
:100A400081F1E8946F936E7F6E5F7F4F8F4F9F4F62
:100A5000AF4FB1E03ED0B4E03CD0670F781F891FA4
:100A60009A1FA11D680F791F8A1F911DA11D6A0F72
:100A7000711D811D911DA11D20D009F468943F9125
:100A80002AE0269F11243019305D3193DEF6CF0124
:100A90000895462F4770405D4193B3E00FD0C9F7EA
:100AA000F6CF462F4F70405D4A3318F0495D31FD57
:100AB0004052419302D0A9F7EACFB4E0A6959795AA
:100AC000879577956795BA95C9F700976105710580
:100AD00008959B01AC010A2E0694579547953795CA
:100AE0002795BA95C9F7620F731F841F951FA01D24
:100AF00008952F923F924F925F926F927F928F92C2
:100B00009F92AF92BF92CF92DF92EF92FF920F939C
:100B10001F93CF93DF93CDB7DEB7CA1BDB0B0FB6A6
:100B2000F894DEBF0FBECDBF09942A883988488863
:100B30005F846E847D848C849B84AA84B984C884F9
:100B4000DF80EE80FD800C811B81AA81B981CE0FF0
:100B5000D11D0FB6F894DEBF0FBECDBFED010895D5
:040B6000F894FFCF37
:100B640000000002000000007100000000001314E7
:100B7400721B5B256441001B5B256442001B5B25E3
:100B84006444001B5B2564430025631B5B31440004
:0C0B9400230D0A001B5B3F32356C000093
:00000001FF
